:020000040800F2
:1000000038230020411500086D1200082D15000846
:100010002D1500082D1500082D1500080000000002
:100020000000000000000000000000002116000891
:100030002D15000800000000C9150008B9240008AB
:1000400055170008551700085517000855170008E0
:1000500055170008551700085517000855170008D0
:1000600055170008551700085517000855170008C0
:1000700055170008551700085517000855170008B0
:1000800055170008551700085517000855170008A0
:100090005517000855170008551700085517000890
:1000A0005517000855170008551700085517000880
:1000B0005517000855170008551700085517000870
:1000C0005517000855170008551700085517000860
:1000D0005517000855170008551700085517000850
:0C00E000551700085517000855170008B8
:1000EC0080F0004002E000BF81F0004142001FBFE1
:1000FC005FEA410392EA030F7FEA226C7FEA236CEA
:10010C006AD04FEA1262D2EB1363C1BFD2184140DE
:10011C0048404140B8BF5B42192B88BF704710F074
:10012C00004F40F4000020F07F4018BF404211F017
:10013C00004F41F4000121F07F4118BF494292EA7F
:10014C00030F3FD0A2F1010241FA03FC10EB0C00AB
:10015C00C3F1200301FA03F100F0004302D5494238
:10016C0060EB4000B0F5000F13D3B0F1807F06D3E5
:10017C0040084FEA310102F10102FE2A51D2B1F1DD
:10018C00004F40EBC25008BF20F0010040EA0300D2
:10019C007047490040EB0000013A28BFB0F5000F52
:1001AC00EDD2B0FA80FCACF1080CB2EB0C0200FA08
:1001BC000CF0AABF00EBC25052421843BCBFD04057
:1001CC001843704792F0000F81F4000106BF80F4D1
:1001DC0000000132013BB5E74FEA41037FEA226C94
:1001EC0018BF7FEA236C21D092EA030F04D092F05F
:1001FC00000F08BF0846704790EA010F1CBF002093
:10020C00704712F07F4F04D1400028BF40F00040EF
:10021C00704712F100723CBF00F50000704700F00F
:10022C00004343F0FE4040F4000070477FEA226236
:10023C0016BF08467FEA23630146420206BF5FEA07
:10024C00412390EA010F40F4800070474FF0000307
:10025C0004E000BF10F0004348BF40425FEA000CCE
:10026C0008BF704743F0964301464FF000001CE076
:10027C0050EA010208BF70474FF000030AE000BFCC
:10028C0050EA010208BF704711F0004302D540420A
:10029C0061EB41015FEA010C02BF8446014600207C
:1002AC0043F0B64308BFA3F18053A3F50003BCFA97
:1002BC008CF2083AA3EBC25310DB01FA02FC634444
:1002CC0000FA02FCC2F12002BCF1004F20FA02F24B
:1002DC0043EB020008BF20F00100704702F120023E
:1002EC0001FA02FCC2F1200250EA4C0021FA02F29F
:1002FC0043EB020008BF20EADC7070474FF0FF0CA4
:10030C001CEAD0521EBF1CEAD15392EA0C0F93EA9E
:10031C000C0F6FD01A4480EA010C400218BF5FEA40
:10032C0041211ED04FF0006343EA501043EA5111B3
:10033C00A0FB01310CF00040B1F5000F3EBF4900AD
:10034C0041EAD3715B0040EA010062F17F02FD2AB1
:10035C001DD8B3F1004F40EBC25008BF20F0010094
:10036C00704790F0000F0CF0004C08BF49024CEAAB
:10037C00502040EA51207F3AC2BFD2F1FF0340EA3D
:10038C00C250704740F400004FF00003013A5DDCAE
:10039C0012F1190FDCBF00F000407047C2F10002EF
:1003AC00410021FA02F1C2F1200200FA02FC5FEADC
:1003BC00310040F1000053EA4C0308BF20EADC7026
:1003CC00704792F0000F00F0004C02BF400010F498
:1003DC00000F013AF9D040EA0C0093F0000F01F045
:1003EC00004C02BF490011F4000F013BF9D041EA67
:1003FC000C018FE70CEAD15392EA0C0F18BF93EA69
:10040C000C0F0AD030F0004C18BF31F0004CD8D192
:10041C0080EA010000F00040704790F0000F17BF19
:10042C0090F0004F084691F0000F91F0004F14D05F
:10043C0092EA0C0F01D142020FD193EA0C0F03D1B7
:10044C004B0218BF084608D180EA010000F00040BA
:10045C0040F0FE4040F40000704740F0FE4040F495
:10046C00400070474FF0FF0C1CEAD0521EBF1CEA34
:10047C00D15392EA0C0F93EA0C0F69D0A2EB030252
:10048C0080EA010C49024FEA402037D04FF08053EC
:10049C0043EA111143EA10130CF000408B4238BFB1
:1004AC005B0042F17D024FF4000C8B4224BF5B1ABF
:1004BC0040EA0C00B3EB510F24BFA3EB510340EA0D
:1004CC005C00B3EB910F24BFA3EB910340EA9C00BB
:1004DC00B3EBD10F24BFA3EBD10340EADC001B012B
:1004EC0018BF5FEA1C1CE0D1FD2A3FF650AF8B42CF
:1004FC0040EBC25008BF20F0010070470CF0004CDC
:10050C004CEA50207F32C2BFD2F1FF0340EAC25006
:10051C00704740F400004FF00003013A37E792F0C7
:10052C00000F00F0004C02BF400010F4000F013A25
:10053C00F9D040EA0C0093F0000F01F0004C02BF20
:10054C00490011F4000F013BF9D041EA0C0195E789
:10055C000CEAD15392EA0C0F08D142027FF47DAF22
:10056C0093EA0C0F7FF470AF084676E793EA0C0F12
:10057C0004D14B023FF44CAF08466EE730F0004C10
:10058C0018BF31F0004CCAD130F000427FF45CAFA0
:10059C0031F000437FF43CAF5FE700BF4FF0FF3C0E
:1005AC0006E000BF4FF0010C02E000BF4FF0010C61
:1005BC004DF804CD4FEA40024FEA41037FEA226C2A
:1005CC0018BF7FEA236C11D001B052EA530C18BF4C
:1005DC0090EA010F58BFB2EB030088BFC81738BFB1
:1005EC006FEAE17018BF40F0010070477FEA226C9F
:1005FC0002D15FEA402C05D17FEA236CE4D15FEA9B
:10060C00412CE1D05DF8040B704700BF84460846CE
:10061C006146FFE70FB5FFF7C9FF002848BF10F18F
:10062C00000F0FBD4DF808EDFFF7F4FF0CBF0120D4
:10063C0000205DF808FB00BF4DF808EDFFF7EAFF5E
:10064C0034BF012000205DF808FB00BF4DF808ED19
:10065C00FFF7E0FF94BF012000205DF808FB00BF0E
:10066C004DF808EDFFF7D2FF94BF012000205DF894
:10067C0008FB00BF4DF808EDFFF7C8FF34BF0120A1
:10068C0000205DF808FB00BF4FEA4002B2F1FE4FBC
:10069C000FD34FF09E03B3EB12620DD94FEA002338
:1006AC0043F0004310F0004F23FA02F018BF404211
:1006BC0070474FF00000704712F1610F01D14202F8
:1006CC0005D110F0004008BF6FF0004070474FF0AC
:1006DC00000070477BB972B90029BEBF00204FF0F3
:1006EC00004106E008BF00281CBF6FF000414FF02E
:1006FC00FF3000F057B8ADF1080C6DE904CE0029BD
:10070C0009DB002B1ADB00F04FF8DDF804E0DDE923
:10071C00022304B07047404261EB4101002B1BDB0C
:10072C0000F042F8DDF804E0DDE9022304B04042B9
:10073C0061EB4101524263EB43037047524263EB5E
:10074C00430300F031F8DDF804E0DDE9022304B0E6
:10075C00404261EB41017047524263EB430300F0AE
:10076C0023F8DDF804E0DDE9022304B0524263EB28
:10077C004303704753B94AB9002908BF00281CBF6E
:10078C004FF0FF314FF0FF3000F00CB8ADF1080C1A
:10079C006DE904CE00F008F8DDF804E0DDE9022391
:1007AC0004B07047704700BF2DE9F04786468C4671
:1007BC000846154674461946089E002B40F0C28028
:1007CC008542B2FA82F245D94AB1C2F1200300FA4D
:1007DC0002FC2EFA03F3954043EA0C0C94404FEACA
:1007EC00154EBCFBFEF8A8B20EFB18CC08FB00F9AA
:1007FC00230C43EA0C43994528D9EB1808F1FF3731
:10080C0004D2994502D9A8F102072B44A3EB0903A2
:10081C00B3FBFEFC0EFB1C330CFB00F0A4B244EA51
:10082C000344A04214D92C190CF1FF3304D2A0427A
:10083C0002D9ACF102032C44241A43EA07401EB13E
:10084C000023D44034607360BDE8F0874746DDE791
:10085C006346F1E792BB0121431B4FEA154EB3FBF4
:10086C00FEFCAFB20EFB1C330CFB07F8200C40EA6D
:10087C000343984562D9EB180CF1FF3004D298452C
:10088C0002D9ACF102002B44A3EB0803B3FBFEFC32
:10089C000EFB1C330CFB07F7A4B244EA0344A7423B
:1008AC004ED92C190CF1FF3304D2A74202D9ACF16A
:1008BC0002032C44E41B43EA0040C0E7C2F12003CE
:1008CC00954020FA03F12EFA03F34FEA154EB1FBD3
:1008DC00FEFC90400343AFB20EFB1C100CFB07F860
:1008EC00190C41EA0041884504FA02F422D969182E
:1008FC000CF1FF3004D2884502D9ACF10200294436
:10090C00A1EB0801B1FBFEFC0EFB1C110CFB07F765
:10091C009BB243EA01439F420ED9EB180CF1FF3115
:10092C0004D29F4202D9ACF102012B44DB1B41EAF9
:10093C00004192E76046E3E76146F7E76046A3E7CC
:10094C006346B7E7834206D916B9002108467BE710
:10095C00C6E900E0F9E7B3FA83F78FB9834201D314
:10096C00724508D8BEEB020460EB030301209C46E1
:10097C001EB9002168E73846FAE7C6E9004CF8E7EB
:10098C00C7F1200CBB4022FA0CF41C434FEA14496B
:10099C0020FA0CF3B3FBF9F8B8402EFA0CF1014332
:1009AC000EFA07F509FB18301FFA84FE08FB0EFA45
:1009BC000B0C43EA00439A4502FA07F240D9E318BC
:1009CC0008F1FF3004D29A4502D9A8F10200234461
:1009DC00A3EB0A03B3FBF9F809FB183308FB0EFE73
:1009EC0089B241EA03418E452CD9611808F1FF33D5
:1009FC0004D28E4502D9A8F10203214443EA0040F7
:100A0C00A0FB0298A1EB0E014145CE46434602D312
:100A1C0006D14D4504D2B9EB020E68EB0403013844
:100A2C00002EA6D0B5EB0E0261EB030101FA0CFC13
:100A3C0022FA07F34CEA0303F940C6E9003198E7C0
:100A4C004046C5E74346D9E710F8012B11F8013BA6
:100A5C00012A28BF9A42F7D0D01A7047034611F8E2
:100A6C00012B03F8012B002AF9D17047034613F828
:100A7C00012B002AFBD1181A0138704702460B468D
:100A8C00014801F08BBF00BF0C030020014801F0AE
:100A9C00FDBF00BF0C03002030B597B004A803F0D5
:100AAC00F7F801214FF47A7003F042F9024630BB9B
:100ABC00014604AB09A803F019F8134A134909AB12
:100ACC0002A803F05DF803F0F1FD114B024602A9F8
:100ADC00684603F091F80F4D4FF0FF304FF0FF31A7
:100AEC00FFF7CCFF2C68FFF7D1FF0022684601A965
:100AFC00019402F0D7FF64200DF0FFFCECE76420BA
:100B0C000DF0FBFCCDE700BF09110108BA1001087C
:100B1C00D0100108F80E00202DE9F0474FF0FF32FD
:100B2C004FF0FF333248334E02F010F84FF0FF31E4
:100B3C004FF0FF30FFF7A2FF3568FFF7A7FF00F07B
:100B4C001DFAFFF787FB2C49FFF7D8FB2B490DF05B
:100B5C000DFB00210446FFF76FFD20B1204627490D
:100B6C00FFF7C4FA044629462046FFF7BFFA23498B
:100B7C000DF0FCFA00210546FFF75EFD20B128467A
:100B8C001E49FFF7B3FA05464FF0000ADFF86890EC
:100B9C001A4F4FF0FF314FF0FF30FFF76FFFD6F8D1
:100BAC000080FFF773FF00F0E9F9FFF753FB4946AC
:100BBC00FFF7A4FB39460DF0D9FA51460446FFF76E
:100BCC003BFD20B120463946FFF790FA04464146DA
:100BDC002846FFF789FA22460146094B094800F0DE
:100BEC007DFA00F0EFF80A200DF087FCD1E700BF8A
:100BFC0020030020F80E0020D39BDE3F0000B443FE
:100C0C000AD7233CE40E00202DE9F84300F00AFA41
:100C1C00002604460027DFF8A080DFF8A09000F043
:100C2C0001FA2146FFF760FA41460546FFF722FD1F
:100C3C0048B328462249FFF757FA0546214928466A
:100C4C00FFF75CFB01462046FFF750FA3946044695
:100C5C00FFF7F2FC1A4908B32046FFF747FA04469F
:100C6C004FF0FF304FF0FF31FFF708FF164B1C60C1
:100C7C005F60FFF70BFF272E01DC19D00136322005
:100C8C000DF03BFCCBE749462846FFF7D5FC002886
:100C9C00D4D028460A49FFF729FACEE72046FFF7B9
:100CAC00DFFC0028DCD020460549FFF71DFAD6E70B
:100CBC00064801F027FFE1E700003443000034C38D
:100CCC000000B443CDCC4C3EF80E00202003002095
:100CDC00D0B540F6B83088B00DF00FFC00F0A0F89D
:100CEC0000F01AF900F054F94FF4FA700DF005FC0D
:100CFC004FF0FF304FF0FF31FFF7C0FEFFF7C6FE9D
:100D0C0000234FF07F511A4621480DF021FC00269C
:100D1C000027002407234FF4C072CDE90334CDE93A
:100D2C000667CDE901441B4B1B4900941B4802F09C
:100D3C00C1F81B4B18600EF045FD05234FF4C07233
:100D4C00CDE90243CDE90667CDE90044154B1649C0
:100D5C000494164802F0AEF8154B18600EF032FDF4
:100D6C0008234FF4C062CDE90243CDE90667CDE913
:100D7C000044104B10490494104802F09BF8104B9F
:100D8C0018600EF01FFD4FF4FA600DF0B6FBFAE799
:100D9C00E40E0020150C0008B81D0020B003002044
:100DAC00DC0E0020250B0008381C00203803002026
:100DBC00D80E0020A50A00083816002028040020B0
:100DCC00E00E00203C2807B522DC10F13C0F03DBC1
:100DDC00002803DD022303E06FF03B0003234042B5
:100DEC008DF8043001238DF806008DF8053064224F
:100DFC000023094801F0D2FD38B90322074801A9A4
:100E0C000DF080FB044801F041FE03B05DF804FBDB
:100E1C0002233C20E4E700BFF8020020A4FF0008F6
:100E2C0007B514480EF01FFC28B9134803B05DF841
:100E3C0004EB0DF0F5BD06238DF807304FF0FF33B2
:100E4C004FF0FF320D4801F0A9FD012209480DF1C8
:100E5C0007010DF057FB094801F018FE00214FF473
:100E6C00FA7002F0F7FA0020FFF7ACFF03B05DF860
:100E7C0004FB00BFA4FF0008E4100108F8020020E6
:100E8C0013B50EF0B7FD0A220023FFF773FC174BC6
:100E9C001A68821A012A17D90022186014485A605D
:100EAC000469836801A95B68984700280ED00BDBA6
:100EBC00BFF35B8F0F4B53E8001F013143E8001267
:100ECC00002AF8D1BFF35B8F02B010BD2268019BE2
:100EDC0053401B07ECD4BFF35B8F064B53E8001F4A
:100EEC00013943E80012002AECD0F7E7A0040020F7
:100EFC0054FF0008000F0020012330B4046903FAEA
:100F0C0001F22368856823EA020323602B68014AF7
:100F1C0030BC18471000010070B5144C20460EF080
:100F2C00A2FB10B312480EF09EFBF0B10A21204632
:100F3C00FFF7E2FF03210E48FFF7DEFFA568AE695D
:100F4C0036B14FF080634FF0A0720A212046B047B3
:100F5C000849094B4B604FF480638B60EB6923B1FC
:100F6C00BDE8704001220148184770BD68FF0008B9
:100F7C0054FF0008040F00208D0E0008BFF35B8F98
:100F8C00024B1868BFF35B8F704700BF000F002047
:100F9C0010B51F480EF067FB30B91E480DF040FD30
:100FAC004FF0FF34204610BD4FF0FF324FF0FF33AF
:100FBC00194801F0F3FC00236A22692114480DF052
:100FCC00B4FA00236B22692111480DF0AEFA0A2005
:100FDC000DF0A6FA0223372269210D480DF0A5FA6F
:100FEC000A200DF09DFA082331220C2108480DF03F
:100FFC009CFA0446084801F049FD34B107480DF04D
:10100C000FFD32200DF08CFACCE70548F7E700BF56
:10101C00A4FF00080A110108F8020020231101089E
:10102C003F11010870B58AB0264C274D20460EF0B2
:10103C001AFB18B92C6820460AB070BD6422002334
:10104C00224801F0ABFC0028F4D110238DF80330BA
:10105C000DF1030304930123059301AB07930923BB
:10106C00089307238DF818008DF82430A36802220A
:10107C009E6820460C2304A9B0470446134801F08F
:10108C0005FD002CD6D1BDF90500FFF7E3F80446A9
:10109C00BDF90700FFF7DEF821460CF0C1FF0C4943
:1010AC00FFF72CF90B49FFF7DDF900210446FFF798
:1010BC00C3FA20B120460849FFF718F804462C6003
:1010CC00B9E700BFA4FF0008100F0020F8020020B1
:1010DC0000003443D00F49400000B4432DE9F843DD
:1010EC000546084611461F46FEF7FEFF04462E4EE7
:1010FC00DFF8B88031462046FFF7BCFA002845D10E
:10110C002B4EDFF8A88031462046FFF795FA0028D1
:10111C0042D129682046FFF7F1F83946804620462F
:10112C00FFF7ECF8E968FEF7E1FF22490646FFF706
:10113C00A1FA002836D130461F49FFF77DFA00B1DD
:10114C001D4E6968EE603046FFF7D8F82969814674
:10115C002046FEF7C9FF3946FFF784F9A968FFF767
:10116C00CDF80646494640462C61FEF7BFFF314696
:10117C00FEF7BCFFFFF788FA6FF063039842B8BF25
:10118C0018466428A8BF6420BDE8F8832046414671
:10119C00FEF7AAFF0446ADE720464146FEF7A6FF40
:1011AC000446B0E7034ECCE7000034430000B443E0
:1011BC00000034C30000FA430000FAC3014B1B6863
:1011CC00184700BF4800002030B585B004460D46D6
:1011DC001022002168460EF009FE02238DF8023021
:1011EC00044B2A462146684601930BF09BFD05B043
:1011FC0030BD00BFC911000880B505460E46174624
:10120C00984602F045F903460EF000FE0446DFF85E
:10121C001890424649F8003039463046A84754F8F1
:10122C00090000F09DF900BF10000000034A0020E7
:10123C00536823F002035360704700BF002004E0A2
:10124C00044A0020136843F010031360024B034A56
:10125C001A607047002002409C00002000127A00A7
:10126C0008B5034B1B689847BDE8084000F026B84A
:10127C004C00002030BFFFF7FDBF00BF2DE9F0414F
:10128C0005460B4EDFF82C80324606EB0807CC1BCC
:10129C00204609490EF09CFDA01942460021083C4D
:1012AC000EF0A4FDAC6607F10800BDE8F08100BFAC
:1012BC00080000000800000020010108054B5A69D5
:1012CC009B689A421FBF044A536843F08053536093
:1012DC00704700BFA011002000ED00E0134B9A6A8C
:1012EC0012F0007F9A6A14BF1E201D2012F0807F1E
:1012FC009A6A18BF1F2012F4002F9A6A18BF212077
:10130C0012F4802F9A6A18BF222012F4003F9A6AB6
:10131C0018BF232012F4803F9A6A18BF24206FEA6A
:10132C0002426FEA12429A62704700BF00ED00E081
:10133C0010B5164B9A6A9C6A12F4805F14BF172280
:10134C00162214F4006F9C6A18BF1822A40509D544
:10135C009A6B9A6A120404D518B19A6A22F4004264
:10136C009A621922094B986A10F4806F986A18BF18
:10137C001A2210F4807F986A40F47F4098624FF0F4
:10138C0000030CBF10461B200B7010BD00ED00E0DD
:10139C0010B5154B0246986A9C6A10F0100F14BFDA
:1013AC001120102014F0080F9C6A18BF1220A407FB
:1013BC0009D5586B986A000604D51AB19A6A22F0BE
:1013CC0080029A621320084B9A6A12F0010F9A6AF3
:1013DC0018BF1420D20658BF9A6A9A6A42F0FF02CC
:1013EC009A6200230B7010BD00ED00E0F0B5474B86
:1013FC0004465B6800258BB0C3F3080385F31188A2
:10140C00BFF36F8F02F07F40B0F17F4F11D102F02C
:10141C000C0008280DD010074CBF0C4601250022EB
:10142C00033B8DF80720032B05D8DFE803F024627B
:10143C00665F2C46F3E700239DF80720CAB902AE7D
:10144C0004F12007324620686168083403C2BC42AC
:10145C001646F7D1099A002D53D0C2F3080121B9D1
:10146C006FEA52226FEA42220992184602A90DF045
:10147C00E5FA0BB0F0BD254BDA6A9107DBD4DA6ADA
:10148C00002AD8DBDA6A5200D5D55A69A16942F430
:10149C0080725A61BFF34F8FBFF36F8F5A6931F867
:1014AC00021C22F480725A61BFF34F8FBFF36F8F0F
:1014BC004DF60272914209D09A6AD2B242B1012021
:1014CC000DF10701FFF764FF0346B5E72368B3E7A7
:1014DC009A6A12F47F4F05D001200DF10701FFF736
:1014EC0027FFF1E79B6AB3F5803FA4D3FFF7F6FE25
:1014FC00EAE700200DF10701E4E700200DF10701F8
:10150C00EDE722F4FF7222F00102ADE700ED00E0FE
:10151C00024A536943F010035361704700ED00E039
:10152C00EFF30880EFF3098101B57246FFF75EFF18
:10153C0001BD00BF102080F3118808484FF40071E2
:10154C00401880F30988EFF314800221084380F3DC
:10155C001488BFF36F8F00F091F80000381F002043
:10156C00084B9B6883420BD1EFF3058343B1064BC9
:10157C005A6842F080525A605A6A22F400425A6207
:10158C000EF0DBB9A011002000ED00E06FF00A01B5
:10159C00084A936819670849D8664B6843F080532A
:1015AC004B60002383F31188BFF36F8F9368186F20
:1015BC00704700BFA011002000ED00E012498A68BE
:1015CC004FF030001044EFF3098C80E8F01F10202E
:1015DC0080F31288BFF36F8F0C4F4FF000664A698F
:1015EC008A603E604FF0680414192068084C206033
:1015FC00D06E0023D36680F3118802F1300090E89E
:10160C00F01F8CF309887047A011002004ED00E056
:10161C00140F00201EF0040F0CBFEFF30880EFF343
:10162C000980816911F8021C0229FFD001B50DF067
:10163C000BFA01BD40B2002807DB01234109034A24
:10164C0000F01F00834042F82130704700E100E0B9
:10165C0040B2002801F10101ACBF00F16040064B23
:10166C004FEA0111C9B2ABBF00F5614000F00F00A9
:10167C0080F800131954704714ED00E008B5094BBD
:10168C00094A23F0604323F07F039360BFF34F8F2D
:10169C00BFF36F8F01F0ACF801F098FF00F048F841
:1016AC0001F0E6F80000000800ED00E042F8203CF4
:1016BC00009B0B4942F81C3C019B21F0010142F8B4
:1016CC00183C029B42F8081C42F8143C4FF0807303
:1016DC0042F8043C0023203A0265C366704700BF01
:1016EC000512000800B50D4B15469860826E0C4B28
:1016FC000E461A602C4686F309884FF00000054B05
:10170C00984720464FF000014FF000024FF00003C5
:10171C00014C204765EA000805120008A0110020C2
:10172C00140F00201022014B1A61704700ED00E0ED
:10173C00002310210348C21801332B2B82F800130D
:10174C00F9D1704700E100E008B5EFF30583064AD4
:10175C00103B02EBC30152F8330049688847BDE8DF
:10176C000840FFF7ABBD00BFB8FF000808B506493D
:10177C00064821F00701C1F1005202F5A0420DF01C
:10178C0010F9002008BD00BF3F2A0020180F0020D0
:10179C004FF0FF324FF0FF33014801F0FFB800BFAC
:1017AC0050000020014801F071B900BF500000202A
:1017BC0038B50546FFF7ECFF2A46082107480CF020
:1017CC00F4FF044628B925B10EF020FB0C22044B83
:1017DC001A50FFF7E7FF204638BD00BF180F002056
:1017EC001400000038B504460D46FFF7D1FF214622
:1017FC002B46082207480DF040F8044628B925B1BD
:10180C000EF004FB0C22044B1A50FFF7CBFF2046C2
:10181C0038BD00BF180F00201400000010B504469E
:10182C00FFF7B6FF214603480CF087FFBDE81040D8
:10183C00FFF7B8BF180F002070B5A0FB01543CB9DE
:10184C002846FFF7B5FF064640B90026304670BD66
:10185C000EF0DCFA0C22044B1A50F6E72A4621460D
:10186C000EF0C4FAF2E700BF1400000038B50025F2
:10187C00074C20460DF05DFF04F1140001350DF00E
:10188C0094FF052D04F12404F3D1002038BD00BFD2
:10189C00240F00202DE9F8430D46064608B301B38A
:1018AC003D210EF015F9E0B90F4BD3F80090B9F1CA
:1018BC00000F04D0C846444658F8047B17B96FF0A3
:1018CC0001000CE02A46314638460EF00EF900288D
:1018DC00F1D17B5D3D2BEED1A4EB09008010BDE86E
:1018EC00F8836FF01500FAE7D80F002070B50546A5
:1018FC00E0B1FFF7BBF80446EFF31186102383F336
:10190C001288BFF36F8F21462846FFF7C3FF0028CC
:10191C00A3BF074B01341B680020A4BF53F8200061
:10192C00001986F31188BFF36F8F70BD0446E3E78F
:10193C00D80F0020012830B50C4609D0042817D147
:10194C0000230022C1E9002300238B60002030BD5E
:10195C00EFF31185102383F31288BFF36F8F084BBD
:10196C000FCB84E80F0085F31188BFF36F8FEDE781
:10197C000EF04CFA1622034B1A504FF0FF30E6E7EC
:10198C00A80400201400000030B501280C4685B0D6
:10199C001FD0042821D100230022CDE900230023ED
:1019AC0002930EF027F842F210720023FEF7E2FECB
:1019BC00009B134DC018019B43EB0101029BC4E932
:1019CC00000105FB02320F4BA2609A420ED8002098
:1019DC000AE06946FFF7AEFFE3E70EF017FA1622AE
:1019EC00094B1A504FF0FF3005B030BD074B01309A
:1019FC0041F100011344C4E90001A360E7E700BF13
:101A0C00A0860100FFC99A3B14000000003665C493
:101A1C0038B50024054D284601340DF0C6FE052CC2
:101A2C0005F10805F7D1002038BD00BFDC0F002000
:101A3C0038B50024054D284601340DF07AFE052CEE
:101A4C0005F11405F7D1002038BD00BF04100020AB
:101A5C000A4B30B51C460025094A191BB1F5307FDD
:101A6C0001D9002030BD506803F18001C3E920206A
:101A7C000160B03303F8085C5160EEE7B804002055
:101A8C00640000202DE9F041054600244FF00108C8
:101A9C000D4E0E4F2B78E2B298181F280DDC726990
:101AAC0008FA00F333EA020207D1736157F83030B9
:101ABC001BB107EBC002516898476A780134E3B256
:101ACC009A42E7D2BDE8F081000401406810002082
:101ADC00044B184400230133994200F8012BFADC23
:101AEC00704700BFB902002010B4064B02461856CE
:101AFC000123054993400C6823430B6010BCFFF78E
:101B0C0099BD00BFB9020020000401401F2806DC6B
:101B1C000122034982400B6823EA02030B607047E1
:101B2C000004014003292AD8DFE801F0020E141F3B
:101B3C000122134B8240996821EA02019960D9680D
:101B4C0021EA0202DA60704701220D4B824099684B
:101B5C001143F3E701220A4B8240D9681143D96043
:101B6C00996821EA02029A607047012303FA00F097
:101B7C00034B9A6802439A60DA681043D860704746
:101B8C000004014030B50A4B53F830408C4204D16C
:101B9C0003EBC0056D68954205D034B943F830109D
:101BAC0003EBC0035A60002030BD6FF00F00FBE761
:101BBC00681000200022034B43F8302003EBC003D5
:101BCC005A60704768100020104B18680B68052B82
:101BDC000BD883B1023B032B04D8DFE803F00211CE
:101BEC0002140020106000207047182BFAD01C2B18
:101BFC0004D0142BF6D06FF0850070474008F1E745
:101C0C0049F64040EEE70248ECE700BF9C0000209C
:101C1C0000127A00F8B53C4F0CF0F1FF38460CF08E
:101C2C00EDFF00F009FD394C394A63681578C3F3B0
:101C3C000313D35C47FA05F520FA03F6AE4202D241
:101C4C00284600F01FFD236843F48023236023689B
:101C5C0043F48033236023689B03FCD5636A43F011
:101C6C0001036362636A9807FCD5636803F00C0395
:101C7C00082B15D12368990706D4236843F0010378
:101C8C00236023689A07FCD5636823F00303636021
:101C9C00636813F00C0FFBD1636823F0F0036360EF
:101CAC00236823F08073236000F036F8236843F038
:101CBC008073236023689B01FCD5636823F0F003D9
:101CCC006360636823F0030343F00203636063689B
:101CDC0003F00C03082BFAD1AE4202D3284600F0D5
:101CEC00D1FC0C4B00201F60636823F4E06343F4C9
:101CFC0080636360636823F460536360636823F4F8
:101D0C0040436360F8BD00BF00A24A0400100240CB
:101D1C001B1201089C000020054A536823F47C1315
:101D2C0043F4E8135360536823F480035360704703
:101D3C000010024038B5036904465860084D284627
:101D4C000DF091FC40B16168AB6828461B680C3102
:101D5C00984700EAE07038BD6FF01200FBE700BF57
:101D6C00DCFE000870B50C461146B1F5001F1E468E
:101D7C004568026923D10F2304F003020432920058
:101D8C00934043EA94032E49DAB2023251F82220EE
:101D9C00190C02EA134391FAA1F2B2FA82F2D3407F
:101DAC00AA689A4209D12046FFF7B0FE2046FFF7F9
:101DBC0001FF00212046FFF7B5FE002070BDB1F5F4
:101DCC00800F34D020461F49FFF7DCFE90BBB6F1E4
:101DDC00806F28D0B6F1C06F27D0B6F1007F2CD120
:101DEC0002210F2204F0030304339B009A4042EAC1
:101DFC009402D3B29B0003F1804303F580339E68B9
:101E0C00A86826EA1246150C95FAA5F2B2FA82F2E7
:101E1C0000FA02F2324320469A60FFF783FE204616
:101E2C00FFF762FEC9E70121DBE70321D9E76FF079
:101E3C008500C3E76FF00F00C0E76FF01500BDE73A
:101E4C000000014023ED000810B502694368126BD5
:101E5C00DB68C2F34202012A04D0022A21D06FF0BF
:101E6C00150010BD1F4A5868B1FBF2F220F03F007C
:101E7C0010435860186A013220F03F0002431A6286
:101E8C00194AB1FBF2F140F6FC72114208BF042171
:101E9C00DA69002022F44F4222F0FF020A43DA6191
:101EAC00DFE7104A4FF49674B1FBF2F2586820F059
:101EBC003F00104362434FF47A74B2FBF4F2586063
:101ECC00186A013220F03F0002431A62074A91421D
:101EDC0085BF0132B1FBF2F148F2010141F400413E
:101EEC00D6E700BF40420F00400D03007F4F1200A9
:101EFC00F7B5002243680446066919480F46DD68A9
:101F0C00596883680192DB6823B96FF0040420469A
:101F1C0003B0F0BD01AA98470028F6DB376306F141
:101F2C0018074FF0FF324FF0FF33384600F00EFE2B
:101F3C002B68204623F001032B6096F85E100DF001
:101F4C006DFA0199FFF780FF96F85D3004461BB1DE
:101F5C002B6843F001032B60384600F0D3FDD6E725
:101F6C00DCFE00082DE9F7430446476805690026A6
:101F7C004FF0FF32002128460DF0E2FB20463B6873
:101F8C00984785F85C6085F85E60012205F11800C1
:101F9C0011460DF0D5FBDFF8B08040460DF063FB29
:101FAC0000284ED0D4F804903146D9F8140001AA78
:101FBC000DF03FFAB0420EDB019B324619791868DE
:101FCC0000F04CF8B04206DBD8F8083040461B68ED
:101FDC00D9F804109847FB681A6842F400421A605A
:101FEC001A6822F400421A603969184B994222D0BF
:101FFC0015D8174B994220D0164BCB1A5942594140
:10200C008900204641F01001FFF772FF002803DB26
:10201C000123002085F85C3003B0BDE8F0830E4B43
:10202C0099420CD003F5C31303F5206399420CBFFE
:10203C000A210021E5E70621E3E70221E1E7082177
:10204C00DFE76FF01200E7E7DCFE000840420F000C
:10205C00A0860100801A060040E133002DE9F34709
:10206C0003680446C3F38F25C3F38923FBB1012214
:10207C008A4223D3324A15F0010F906940F00100D7
:10208C00906192694FEA132002F001020192019AC9
:10209C002C4AC3F3440300FA03F009BF5368D36915
:1020AC00034343F0E06316BF03435360D361264FF1
:1020BC0004EBC106A64209D1002019E054F8320005
:1020CC00C0F38920984238D10132D1E7D4E90025F8
:1020DC0012F003090FD145F04105C2F3870AC2F390
:1020EC00831257F82280B8F1000F15D16FF012004F
:1020FC0002B0BDE8F087B9F1020FEED0B9F1010FD3
:10210C0007D115F4C07F0CBF45F0020545F004055E
:10211C00E3E745F00105E0E740460DF0A4FA00289E
:10212C00E4D04B462A4640460AF00F010CF098FECC
:10213C00002804F10804BDDADAE76FF01500D7E7E0
:10214C0000100240000001406C050108F8B50C4677
:10215C00036941685E682379012B33D09A1E55427E
:10216C005541AD026279022A96BF354F4FF4005C9F
:10217C0037F812C0A279042A27D0003B18BF0123DC
:10218C001B03E279012A0A680CBF4FF44077002741
:10219C00A642D1681CD121F4B05129430B43D36022
:1021AC00136923F4405343EA0C03136143681A6820
:1021BC00536923F440733B4353613168BDE8F840E5
:1021CC000DF08BB94FF4C065CCE74FF48053D8E7D2
:1021DC0001F4C0618D421FBFD16821F4C061294355
:1021EC00D160426811680A6902F4405294451FBFDD
:1021FC000A6922F4405242EA0C020A6142681168F0
:10220C00CA6802F4805293421FBFCA6822F48052FB
:10221C001343CB6043681A68536903F440739F42BD
:10222C001FBF536923F440733B43536121683368E8
:10223C00994203D00DF051F923683360F8BD00BF0B
:10224C00B41001082DE9F0410C464368A6791D68CD
:10225C000369D3F804800B794979012B33D1022916
:10226C004CD9042E47D04FF480574FF4C06203234F
:10227C008B4240D1002F79D0002A14BF03220422B4
:10228C00B24238D1E37963B1012B34D13A4B9D4240
:10229C0007D0A3F574439D4203D003F580639D42A0
:1022AC0029D1EB68214623F40053EB60FFF74EFF76
:1022BC00EB6843F40053EB6094E8030088E80300F8
:1022CC000020BDE8F081022B08D1022921D9042E6F
:1022DC0011D04FF480624FF48057C8E702290A46A8
:1022EC001FD9042E04D133B94FF480571A46BEE7D8
:1022FC0063BB0329C4D06FF08500E2E71F4A042EAC
:10230C0032F811C0F7D04FF4C062033B012B10D848
:10231C00F1E71A4A042E32F811C0ECD04FF4806267
:10232C00F3E7164A042E32F811C016D1002BE2D175
:10233C001A464FF48057BCF5805F13D0BCF5405F54
:10234C0012D0BCF1000F92D1012391E7033B012B7A
:10235C00D1D90022BFE70022D7E7002BFBD11A46C8
:10236C001F46E8E7002383E7022381E7002A14BF16
:10237C000222032284E700BF00380140B410010898
:10238C00F7B5054644680669264830600DF06BF9D0
:10239C0018B96FF0120003B0F0BD3068E1688368C3
:1023AC001B6898470028F6DB0021206A01AA0DF073
:1023BC0040F80028EFDB019B002219791868FFF721
:1023CC004DFE0028E7DB6E682B6934685F68E368B4
:1023DC0023F40053E36070680DF045F90028D8D061
:1023EC00D6E901018368DB6803B1984704F10C035B
:1023FC0053E8003F43F00C0304F10C0141E80032B8
:10240C00002AF3D139462846FFF7A0FE337D1BB1D5
:10241C00636943F008036361E368002043F40053ED
:10242C00E360B8E7DCFE00084FF0E02310B50F497D
:10243C009C691A6908689B690D4902F4803234B9A9
:10244C0093B903464AB90A681044C01A10BD002B50
:10245C0008BF03460AB9A342F5D90A6802440A60C8
:10246C004FF0E0221269EEE70446F3E79C110020DE
:10247C009811002010220A4B002083F823204FF4DF
:10248C00E152084B1A60084B41F61F4218604FF09E
:10249C00E0235A6198611A6942F007021A61704789
:1024AC0000ED00E09C1100209811002010B5FFF702
:1024BC00BBFF1049104B0868D3E90042001942F1E8
:1024CC000002C3E9000200230B604FF4E1530B4AF6
:1024DC00D2E90041001BB0FBF3F043431B1941F15F
:1024EC000001C2E9003101F04DF9BDE81040FEF7E2
:1024FC00E5BE00BF981100203008002028080020FD
:10250C002DE9F041DFF8E08099B1421C0BD14FF07E
:10251C00E022136923F0010313614FF07F43C8F8E5
:10252C000030BDE8F081D8F80060012807DC0027F6
:10253C000BE0431CD8F80060F7D140F6191040F6B8
:10254C001A139842A8BF1846471EEFF311851023A3
:10255C0083F31288BFF36F8FFFF766FF4FF0E02312
:10256C00224C9969D4E9002380184FF0000243F102
:10257C000003C4E900031E4B1A601E4B1A68831A31
:10258C002ED44FF4E15C0CFB073303F5E0531F33FF
:10259C00B3FBFCF7131A0CFB0733B3F5806F38BF92
:1025AC004FF48063144A934228BF13464FF0E02245
:1025BC00C8F80030013B906953610023814293615C
:1025CC00A1EB000338BF9B19D4E900125B1842F150
:1025DC000002C4E9003285F31188BFF36F8FA0E7C6
:1025EC004FF48063E2E700BF9C110020300800200C
:1025FC00981100202808002020DFFF0038B5EFF3E9
:10260C001185102383F31288BFF36F8F084B1C685E
:10261C00084B1B68E41AFFF707FF85F31188BFF31B
:10262C006F8F4FF4E1532044B0FBF3F038BD00BF83
:10263C0030080020280800200D4A536803F00C01D4
:10264C00082912D10B48C3F38341DB03405C09D545
:10265C005368094AC3F340435043084AD35CB0FB68
:10266C00F3F07047064B584370470348704700BF60
:10267C00001002402D12010800127A002B120108E2
:10268C0000093D00D8B10F4B984216D80E4B98421A
:10269C0094BF002001200D4A136823F00703034365
:1026AC001360136803F0070398421CBF136803F010
:1026BC000703C01A18BF012070470220EBE7012066
:1026CC00704700BF006CDC0200366E010020024037
:1026DC0038B5EFF31185102383F31288BFF36F8F96
:1026EC00064B9C680CF0D2FF85F31188BFF36F8FFB
:1026FC002046BDE83840FEF733BF00BFA0110020D4
:10270C0038B5094B53F82040013053F82050A542FE
:10271C0000D838BD636823B120460CF0BAFF0834EA
:10272C00F5E723689847FAE76C060108012270B5B3
:10273C002A4B032086B01A70FFF7E2FF01F0A8F8CD
:10274C000CF0C3FF0420FFF7DBFF254C254D26467C
:10275C00AE4204F1300410D300F0BEFD204C224EEA
:10276C00AC4226D300F0CCFDFEF7B2FA1F4A137B25
:10277C0023F00103137306B070BD54F80C3C0593A1
:10278C0054F8103C049354F8143C039354F8183C3C
:10279C00029354F81C3C019354F8203C009354E9E8
:1027AC000A2354E90C0100F04DFB54F8303C5E65F3
:1027BC00CDE7D4E90A23B3F1FF3F08BFB2F1FF3FE5
:1027CC0005D052EA0301206803D10CF0FBFF303432
:1027DC00C6E73146183000F05BFFF8E72C160020F6
:1027EC001001010810010108DBF80008B0080020F6
:1027FC0008B50348034A0021121A0CF062FF08BD09
:10280C003803002038160020782370B5134E0122AF
:10281C0003FB0066002386B0CDE904230F2201934D
:10282C00CDE9023214230E4D0E4903FB005504462C
:10283C0001EB00214FF4807230460B4B009500F0F9
:10284C0001FB737B2C7423F004037373074B01346B
:10285C0003EB4423EE606B6006B070BD38080020BB
:10286C00A01100203821002019F70008381F002083
:10287C00BFB50020FFF744FF294B83F30888294C90
:10288C0000256369284E43F400736361F02384F8D8
:10289C002230E57725766576A57684F82050636A34
:1028AC00224F43F4E0236362FEF732FEFEF73AFF59
:1028BC004FF0FF33A362E36240F201131C4C20463D
:1028CC00A38100F0DFFFB4600CF0CCFE0120FFF719
:1028DC0017FF0220174CFFF713FF00F031FD164BCA
:1028EC0074610593012315494FF48072CDE90353AC
:1028FC0020463B46CDE90155009500F0A3FA06466B
:10290C00627B204622F0040262730CF097FF28468B
:10291C00FFF77AFF3A4631462046FEF7E3FE00BF4A
:10292C003821002000ED00E0A0110020392700081C
:10293C0028090020B00800203D1201083822002090
:10294C0038B5054C256804EB850405B938BD54F839
:10295C000439013D9847F8E71001010838B5044CDB
:10296C00044DAC4200D338BD54F8043B9847F8E70B
:10297C001C01010820010108002038B5054C064D4A
:10298C00AC4200D338BD20460CF0A6FE0028F9DB83
:10299C002034F5E7DF020020DF0200202DE9F341AF
:1029AC00044617461E46EFF31188102383F3128852
:1029BC00BFF36F8FC368334A7BB1806891688842DC
:1029CC0019D057EA060318D188F31188BFF36F8F1B
:1029DC006FF00F0002B0BDE8F081916891F90E1014
:1029EC000133E36093682161A36088F31188BFF31E
:1029FC006F8F0020EEE72169F2E791F90E1090F944
:102A0C000E306FF07E029942A8BF19469142B8BFB2
:102A1C0011468B422DDD0CF084FE054622464146C4
:102A2C00CDE90076184800F081FB0028E1D0EFF3E7
:102A3C001186102383F31288BFF36F8FA068D0B177
:102A4C00236821699C420AD04BB193F90E3099420C
:102A5C00A8BF19466FF07E039942B8BF19460CF017
:102A6C0060FE40B13146084800F0F2FB6FF00A00FE
:102A7C00B0E70025D2E7002DF4D186F31188BFF31F
:102A8C006F8FF3E7A01100202D16002038B5836856
:102A9C00044663B3194A926893422BD1C368012B45
:102AAC0003D9013BC360002038BDEFF3118510231F
:102ABC0083F31288BFF36F8F016980680CF031FECD
:102ACC0020460CF008FFA06058B190F90E2022614E
:102ADC00002202670CF0B2FE2946094800F0B8FB50
:102AEC00E1E7E06085F31188BFF36F8FDBE76FF0F0
:102AFC001500D9E74FF0FF30D6E700BFA01100203A
:102B0C002D16002038B50446EFF31185102383F3FE
:102B1C001288BFF36F8F0CF0DEFE48B10022026703
:102B2C000CF08CFE2946BDE83840074800F090BBFD
:102B3C00D4E902329A4218BF01330221A36004F196
:102B4C0010000CF09FFFEDE72E16002013B5EFF3ED
:102B5C001181102484F31288BFF36F8F846844B101
:102B6C00013C846081F31188BFF36F8F002002B0A9
:102B7C0010BD52EA030406D181F31188BFF36F8FA5
:102B8C006FF00F00F3E7CDE900230246014800F097
:102B9C00CDFAECE72E16002070B50446EFF3118544
:102BAC00102383F31288BFF36F8F6FF00A06204651
:102BBC000CF091FE18B106670CF040FEF7E7A06030
:102BCC00022104F110000CF05DFF2946BDE87040B5
:102BDC00014800F03DBB00BF2E1600202DE9F0434C
:102BEC0005464FF0FF364FF0FF37DFF8248185B0F4
:102BFC00EFF31189102383F31288BFF36F8FAC6F3F
:102C0C008CB9022105F190000CF0AAFD00285DD1D1
:102C1C0000234946CDE90067029305F180023D4847
:102C2C0000F03CFCE4E7EA6F23689442AB6708BF12
:102C3C00EB67D5F8903043F00203C5F89030E368A9
:102C4C0023F0040343F00103E360636889F3118804
:102C5C00BFF36F8F20469847EFF31189102383F34E
:102C6C001288BFF36F8FE368D90623F0010237D4C3
:102C7C00E260E3689A071AD5D8F8000023F0020343
:102C8C00E360A0B10021026888B143689C4237D14F
:102C9C00036869BBD8F80420C8F80030824201D11F
:102CAC00C8F80430002340F8083BFFF72BFFD5F899
:102CBC00903023F00203C5F8903089F31188BFF3EC
:102CCC006F8FDB0594D400F043FB91E705F188048A
:102CDC000022012120460CF052FE0028F8D197E783
:102CEC0023F01103E36004F11000FFF70BFFC0E7C2
:102CFC000B60D8F80430834208BFC8F80410D1E741
:102D0C0022B11368014610461A46BDE71346F9E78F
:102D1C00C01100202F160020F8B5C36804469A078E
:102D2C000F46C3F340062CD45B071AD40B680BB9BF
:102D3C0083680B60E368DD0742BFA36802263B6033
:102D4C003D6858BF0126002D38D01E4B9B68AB4206
:102D5C000AD0D5F89030D807C3F3800214D46FF0A2
:102D6C00120600233B6024E00CF023FDD5F89030D4
:102D7C000028F0D1D907C3F3C002F0D552B15B07DC
:102D8C0008D46FF00F06ECE7002AFAD1C3F3C003A6
:102D9C00002BF6D100232360EB6F63B9C5E91E4409
:102DAC0028460CF0E8FCE36843F00403E3603B685E
:102DBC00A3603046F8BD1C60EC67F1E76FF01506B8
:102DCC00CFE700BFA0110020F0B50446002089B069
:102DDC00C4E91E000E9D04F18000C4E9200004F13A
:102DEC008800C4E922004DB32879002840F2011074
:102DFC0008BF0120C4F8900000204FF0FF364FF0C0
:102E0C00FF37CDE90330CDE90100CDE90667204657
:102E1C000B4B009400F04EF855B1296811B12046C7
:102E2C000CF0CDFC6B791BB1237B43F001032373B6
:102E3C00204609B0BDE8F0400CF0C4BC0120D9E735
:102E4C00E92B00082DE9FF41984600F15803C0E931
:102E5C0016330E9B002603730423D51D437325F0F4
:102E6C0007050D9B0D440F4683732946C0E9066682
:102E7C008660C6730446FEF701FA0C9B073002937A
:102E8C000B9B20F0070001930A9B2D1A00932A46F6
:102E9C00434639462046FEF709FC054B66659B68A0
:102EAC0003B15B6E2846636604B0BDE8F08100BFD9
:102EBC00A0110020F0B5002587B00595109DDDE927
:102ECC00127604950F9D044603950E9D02950D9D5B
:102EDC0001950C9D0095FFF7B5FFB6F1FF3F08BFBC
:102EEC00B7F1FF3F05D056EA070305D1204600F0A5
:102EFC00C1F9204607B0F0BD3A463346024904F109
:102F0C00180000F0C5FBF4E7DBF8000838B50D4DF0
:102F1C002B4653F8184F9C4200D004B9EC68AB68B0
:102F2C0038B95A7BD20604D1A26912B9DA897F2A40
:102F3C0005D89C4202D0204600F0F0FA23466B6183
:102F4C0038BD00BFA011002008B590F90D20014636
:102F5C00002A437B04DA03F07F0343730CF034FC48
:102F6C00044B9868431A58425841BDE80840FFF793
:102F7C00CDBF00BFA011002070B490F90D30427B82
:102F8C00002B29DBD30627D183692BBB134962F0B5
:102F9C007F0242730A4652F8184F944218BF2346D8
:102FAC00CC6923B9C0E900242060C8610CE090F919
:102FBC000E5093F90E60B5420AD0AE4208DD5A6845
:102FCC00C0E9003210605860002070BCFFF79EBF53
:102FDC009C42E7D01B68E4E770BC7047A01100204E
:102FEC00002A2DE9F0410E460CBF10210821427B2E
:102FFC00044611420FD141EA0203D20918D143739E
:10300C0008291BD00120FFF781FFBFF35F8F637B83
:10301C0023F060036373264B9B68A34242D1EFF30A
:10302C000583002B3ED13046BDE8F041FEF7AEBA29
:10303C0003F07F0343730CF0C7FBE1E7A36813B104
:10304C0020460CF0C9FB04F118000CF0BAFCA56D7D
:10305C0004F15807AF4211D04FF0000875B1284663
:10306C000CF0BAFB05F118000CF0ABFC2846C5F8C7
:10307C007080FFF781FFA56DAF42EFD10C4FBB689D
:10308C009C42BFD1EFF30583002BBBD00120FFF78F
:10309C003DFF40F20113074D2846AB8100F0F2FBD7
:1030AC00BD60B2E786F31188BFF36F8FBDE8F08186
:1030BC00A01100202809002070B590F90D200146C0
:1030CC00002A437B04DA03F07F0343730CF07CFB90
:1030DC00154A4B7B104663F07F034B7350F8183F37
:1030EC00D469834208BF002323B9C1E900042160DD
:1030FC00D1610CE091F90E5093F90E60B5420ED0EF
:10310C00AE420CDD5868C1E900300160596090682E
:10311C00BDE87040431A58425841FFF7F7BE9C4235
:10312C00E3D01B68E0E700BFA0110020F8B5124BFC
:10313C000C46DDE9067611469868104A1060EFF3EC
:10314C001182102282F31288BFF36F8F9D6828467C
:10315C000CF04CFBB6F1FF3F08BFB7F1FF3F06D0B8
:10316C003A463346064905F1180000F091FA20461C
:10317C00BDE8F840FEF70ABAA0110020C8110020E3
:10318C00DBF80008F8B50446EFF31186102383F33F
:10319C001288BFF36F8F437B49B2DA0619D1856968
:1031AC00BDB903F07F0343730CF00EFB437B274A3E
:1031BC0063F07F0343731346817353F8180F9842DF
:1031CC0018BF0546D06945B9C4E900300460D46124
:1031DC000EE09B0719D4A17336E095F90E70B94235
:1031EC000FD08F420DDD6B68C4E900531C606C601E
:1031FC000120FFF78BFE012086F31188BFF36F8F40
:10320C00F8BDA842E0D02D68DDE7A56820460CF09B
:10321C00DBFAA1732B689D4209D16B68C4E900539A
:10322C001C606C6010E06A689342F6D01B68002B3F
:10323C00F3D093F90E209142F5D08A42F3DD5A680F
:10324C00C4E9003214605C600020D5E7A0110020B6
:10325C0049B9EFF3058030B9054B5A699B689A421E
:10326C0001D0FEF793B981F31188BFF36F8F7047CC
:10327C00A011002010B5EFF31184102282F31288F4
:10328C00BFF36F8F427B510704D484F31188BFF3D3
:10329C006F8F10BD22F004024273FFF76DFE2146C2
:1032AC00BDE810400148FFF7D3BF00BF3016002027
:1032BC00034648B9EFF3058232B9064A5169926860
:1032CC00914201D0FEF762B983F31188BFF36F8F7F
:1032DC00704700BFA0110020EFF31181102383F37E
:1032EC001288BFF36F8F054B9A68D37B013BD37366
:1032FC0081F31188BFF36F8F704700BFA0110020BE
:10330C0038B5EFF31185102484F31288BFF36F8F57
:10331C000A4B00209A68D37B0133D373FFF7F6FD79
:10332C0085F31188BFF36F8FEFF3118084F312884C
:10333C00BFF36F8FBDE83840FFF7BABFA011002074
:10334C00024B03F11802C3E906227047A0110020BA
:10335C00F8B5EFF31185102383F31288BFF36F8F49
:10336C0019498868437B03F07F0343730CF02CFAF4
:10337C0008468B685A7B62F07F025A7350F8182FFC
:10338C00CC69824208BF002222B9C3E90004236041
:10339C00CB610CE093F90E6092F90E70BE420ED028
:1033AC00B7420CDD5168C3E900210B60536001206A
:1033BC00FFF7ACFD2846BDE8F840FEF7E7B8A2429F
:1033CC00E3D01268E0E700BFA011002050EA01032F
:1033DC002DE9F04105460E4603D1FFF7B9FF002059
:1033EC002BE0831C71F1FF3329DB0CF0FFFA2C1856
:1033FC00EFF31188102383F31288BFF36F8F124FF2
:10340C00124BB8681860FFF79FFDB86810492A4640
:10341C003346183000F03CF9BA684046537B43F011
:10342C0010035373FEF7B2F80CF0E0FA201A63EBBA
:10343C000303012873F10003D1DBBDE8F0816FF0C9
:10344C000104241AD4E700BFA0110020C8110020E9
:10345C00DBF80008B1F1FF3F08BFB0F1FF3F08B542
:10346C0006D10A4B98680CF0F8F94FF0FF3008BD04
:10347C00FFF7ACFFC11709304FF00A024FF0000301
:10348C0041F10001FDF776F9F1E700BFA011002032
:10349C00014B9868704700BFA0110020D3B5DDE93F
:1034AC000667089CCDE90067FFF740FE1CB1034B93
:1034BC009B685B69236002B0D0BD00BFA0110020E7
:1034CC000122044BC01A044BC0105843034B1A542E
:1034DC00704700BFA0090020ABAAAAAA3116002091
:1034EC00C3897F2B12D80A4B1B6863B1094B90F927
:1034FC000E201B689A4209DB437BDB0606D1064B88
:10350C00C31A18BF012303F0010070470023FAE728
:10351C00D0110020CC1100203808002070B50E4BC3
:10352C000E4C1E7C182303FB0644054620460CF06B
:10353C0048FA00220A4B28469A55FFF7D1FF48B1AA
:10354C00084B2046BDE870401A680749013AD3176A
:10355C0000F09EB870BD00BFA0110020A009002093
:10356C0031160020D0110020CD34000838B5EFF30F
:10357C001185102383F31288BFF36F8F104B114A00
:10358C009C681068A04206D1FFF7C8FF85F311882C
:10359C00BFF36F8F38BD00211B7C11600A4AD35CCE
:1035AC00002BF3D02046FFF79BFF0028EED0637B67
:1035BC00DB0602D12046FFF77FFD2046E4E700BF83
:1035CC00A0110020C811002031160020074808B5B2
:1035DC00074A0849121A0CF076F8BDE8084006486C
:1035EC00064A0749121A0CF06EB800BF0000002002
:1035FC003803002084130108000000200000002084
:10360C0084130108034B1B680BB9FEF7F7BF0020AE
:10361C00704700BFD411002030B570B10B4B5B6804
:10362C0098420AD0036843B1D3E90421D0E9044598
:10363C00121941EB0501C3E90421D0E900321360F2
:10364C005A600023C0E9003330BD00BFA000002049
:10365C0010B50E4B1C689C4204D1FFF7D3FF6FF0E2
:10366C00004010BDFFF7CEFF002CF8D0D4E9043297
:10367C001B1A62EBE072B3F1004F72F10001EEDA4B
:10368C00002AACBF18460020EBE700BFA0000020CA
:10369C00B3F1FF3F08BFB2F1FF3FF8B504461D463A
:1036AC0016465ED08160EFF31187102383F31288E6
:1036BC00BFF36F8F013275F1FF3324DA6FF0010322
:1036CC002D49D1E900209B1A4FF0FF3262EB00002C
:1036DC009E1B60EB0500012E70F1000301DA012640
:1036EC000020C4E90460254ED6F800C07568B445C6
:1036FC0008BF4FF0000CBCF1000F0DD1C4E9006500
:10370C002C6074601CE0FFF77DFF013645F100056D
:10371C00361845EBE070E4E7DCE90420D4E9043129
:10372C00934271EB000E1DDAD21ADCF8043060EB18
:10373C000100CCE90420C4E900C31C60CCF80440AF
:10374C003368B34209D09C4207D10D4B1C6824B995
:10375C00FFF77EFF2146FEF7D3FE87F31188BFF3F8
:10376C006F8FF8BD9B1A61EB0001AC45C4E90431C5
:10377C00C4D0DCF800C0BEE7B8090020A0000020CF
:10378C00D41100202DE9F84FEFF3118C102383F3A3
:10379C001288BFF36F8FDFF8B0A0DFF8B090002471
:1037AC00C9F80000DAF800000025504508BF0020D9
:1037BC00274FE046D7E90021D9F8003078B3D0E99B
:1037CC00046C4FEAE37EB3427EEB0C0B05DAF61A7F
:1037DC006CEB0E04C0E9046421E0B21841EBE67115
:1037EC00C0E90445C7E90021FFF716FF88F31188EB
:1037FC00BFF36F8F83689847EFF31188102383F31F
:10380C001288BFF36F8FD9F80030DAF800009B1BD9
:10381C005045C446C9F80030CBD1D7E9002100246B
:10382C009A1841EBE373C7E90023C9F80040FFF78E
:10383C000FFF2146FEF764FE88F31188BFF36F8FEC
:10384C00BDE8F84FFFF792BEA0000020D411002075
:10385C00B809002010B5EFF31184102383F31288FC
:10386C00BFF36F8FFFF7CEFE0346054AD2E9000186
:10387C00181841EBE37184F31188BFF36F8F10BDFF
:10388C00B8090020014B4366704700BFE0020020DE
:10389C0001480BF0C5B800BF4212010838B5064C00
:1038AC00064DAC4201D3002038BD2046D4E90112AC
:1038BC000CF002F91834F4E7E0020020F8020020C2
:1038CC001FB5094A02AB92E803004FF4807283E8FB
:1038DC000300009305494FF0FF330548FFF774FAD6
:1038EC00002005B05DF804FB2801010838290020F0
:1038FC00C0090020014B1868704700BF84060108FE
:10390C002DE9F04788B0109D002D6AD005F15009C3
:10391C0004464846884617461E4600F0C9F900285A
:10392C005FD0002C5DD0D4F800A0BAF1000F04D009
:10393C006426304608B0BDE8F087404605F0C8FE66
:10394C00002853D0002F4CD0002E4AD0CDE903AA2A
:10395C0007AB059305F1580393E807008DE80700C2
:10396C00CDF81CA0314699E80C00404605F044FF08
:10397C000646002852D1C8210120EB6D2A6E9847CB
:10398C002060002850D0404605F0C4FE05F16403C9
:10399C00009339462B46079A266800F06DFAC6F854
:1039AC00C4002168D1F8C40080B3703100F03AFB38
:1039BC000646E8B9236895F84820294683F8B820CC
:1039CC00206870220CF004FA2368D8F80020C3F8A1
:1039DC00C02007986B6D296E9847304608B0BDE83B
:1039EC00F0870B26304608B0BDE8F087C826A0E764
:1039FC00216889B1D1F8C43043B1404605F08AFE44
:103A0C002368D3F8C41000F01BFB216808466B6DCB
:103A1C00296E9847002323600126DAE76728D8D05F
:103A2C00692803D00A28F7D10A26D2E76726D0E7FF
:103A3C00F0B589B06D4650221749064617480CF070
:103A4C00C7F9284600F024F9AC460027BCE80F0063
:103A5C00134C0FC4DCF80030284644F8043B00F04B
:103A6C0063F995E8030084E803000DF11F008DF85D
:103A7C001F7005F055FE58B99DF81F70074970224C
:103A8C00304681F86C700CF0A3F9304609B0F0BDEB
:103A9C0000F032F9F2E700BF40010108580A00209B
:103AAC00A80A0020F8B170B503680446B3B11646F5
:103ABC00D3F8C42092B1D3F8C0000D4605F01EFA1D
:103ACC0060B12368D3F8C40040B155B132462946E1
:103ADC0000F076F9003818BF012070BD4FF49670D5
:103AEC0070BD0B2070BD4FF4967070472DE9F041FE
:103AFC0086B0C0B31C46B3B30F469046064605F0DD
:103B0C0081FB034604F10C0595E803008DE80300E6
:103B1C00059305A894E80E0005F076FB0546E0B980
:103B2C0002AD284605F0E0F995E80300334686E837
:103B3C00030005AA4146384605F046FA0546B8B9D1
:103B4C0022460320B46006F10C0105F017FF054670
:103B5C0070B905A805F0B4FB08B100F0CDF8284603
:103B6C0006B0BDE8F0810B25284606B0BDE8F08113
:103B7C0000F0C2F805A805F0A3FB0028EFD0ECE795
:103B8C00B8B32DE9F0430D46A1B029B316461AB3CC
:103B9C001F460BB304460DF1100840460DF11809F1
:103BAC0005F036FC98E8030084E80300484605F06D
:103BBC00D7FD404605F02CFCCDF8009098E80300AA
:103BCC003B4684E8030032462946204605F02AFC91
:103BDC0030B921B0BDE8F0830B2021B0BDE8F083F3
:103BEC00039000F089F800F087F8039821B0BDE845
:103BFC00F0830B20704700BF70B32DE9F0410D46E8
:103C0C00A0B029B316461AB31F460BB30446FFF7F0
:103C1C0071FE03460DF1100823604046FFF708FFC4
:103C2C0050220E4940460CF0D3F83B46324629460A
:103C3C002046CDF80080FFF763FE10B920B0BDE838
:103C4C00F081039000F058F8039820B0BDE8F081A3
:103C5C000B2020B0BDE8F0810B20704790010108CB
:103C6C00FDF7EABDFDF7BEBDFDF7D8BDFDF7A0BD64
:103C7C00844630B4054C0FCC25686446ACE80F0084
:103C8C00CCF80050204630BC704700BF88060108B5
:103C9C00844630B4054C0FCC25686446ACE80F0064
:103CAC00CCF80050204630BC704700BFA800002064
:103CBC0058B1036843B1436833B1C36823B180681A
:103CCC00003818BF0120704718467047064B1B7808
:103CDC003BB1064B1A780AB901221A70044B1878BA
:103CEC007047044B187870473216002033160020AA
:103CFC00D81100209C06010830B4002300240025B4
:103D0C00054A0649C2E902450B700548054913806E
:103D1C0003700B7030BC7047C80A0020D81100200B
:103D2C003316002032160020002202600271704708
:103D3C0070B51F4B05461A7B0E46B4B00AB11C6811
:103D4C00B4B91C4B19785A688DF840100021339285
:103D5C00DA6808462B921A692C925A699B682D9244
:103D6C006A462A9300F0BCF980B134B070BDD8B962
:103D7C00A06832462946E03002F008F86468002C4E
:103D8C00F5D180F00100C0B234B070BD3246294686
:103D9C002EA802F047F80446684601F0C3FF84F0F1
:103DAC000100C0B234B070BD002034B070BD00BF93
:103DBC00B0140020E0140020C96F02F08DBD00BFCC
:103DCC00002852D070B50D468EB000294AD004465A
:103DDC00006800F051FC002844D06668002E41D0E9
:103DEC00B469284623699847F369059013B105A86F
:103DFC0098470598D6F880301B690090726903F1DA
:103E0C00E000B16F06AB03F0E7FFD8B1A36828461A
:103E1C0006A99847336A04460BB106A89847D6F80A
:103E2C00802096F87A301069012B00F1E0001ED04A
:103E3C00F16F02F051FD0440E4B284F00100C0B215
:103E4C000EB070BDD6F880301869059B02960093B1
:103E5C00084BE03001937269B16F06AB03F0ECFFD5
:103E6C000028D3D101200EB070BD0120704702F0A4
:103E7C00B1F9E2E7C53D00082DE9F04F87B0002805
:103E8C0000F0C3800F46002900F0BF800446006894
:103E9C0015461E4600F0F0FB002800F0B680002D01
:103EAC0000F0B3802B78002B00F0AF80002E00F0D8
:103EBC00AC805948D4F8049006F090FA002800F031
:103ECC00A4808468C4F8884006F0AEFA04F19C0A19
:103EDC00C4F88400C4F88CA02846FCF7C7FD013058
:103EEC003C2804F1840800F289802B463C214B4A83
:103EFC00504608F0EDFD4FF47A733146E3675022DB
:103F0C00C4F8809004F128000BF062FF337A384635
:103F1C00022BD9F8103042490CBFD3F8BC31D3F87E
:103F2C00B831A3670023E361236200F0B3FB0028E0
:103F3C0064D04268A261002A60D0294633464846C4
:103F4C0006F0DEFC606200285CD0D9F8103003214A
:103F5C00B3F898020625421CA3F8982201F0E6FE5D
:103F6C002061D4F88020D9F810301069D3F8C4310E
:103F7C00009519682269D9F81430E03001F082FDFF
:103F8C000246D9F81000D0F8CC31D0F8C41100F0AA
:103F9C00F1FA98B3D9F810300521B3F89A0204AFAE
:103FAC00421CA3F89A2201F0C1FED4F88030606163
:103FBC0031461E69D9F810303846D3F8C4A1D4F86C
:103FCC0024B000F0F3FA039597E803000190ADF8E4
:103FDC000810DBF81030E0360093D4E90432DAF83C
:103FEC000010304601F07CFD0246D9F81000D0F8E4
:103FFC00CC31D0F8C41100F0BDFA40B9606A08B1F8
:10400C0000F05CFA404600F001FA4FF00008404620
:10401C0007B0BDE8F08F00BFEC130020D4060108F8
:10402C00A006010808B5034640B1084631B15968ED
:10403C00502228310BF0CCFE002008BD0B2008BD0F
:10404C00F8B528B1044600680D4600F015FB10B910
:10405C0001242046F8BD6368002BF9D0002DF7D061
:10406C00286800F009FB0028F2D06C68002CEFD017
:10407C00606AD4F8807006F093FCD4F880306269E2
:10408C001869D0F8C831E030196801F04BFC0346D0
:10409C00D4F88010226908691C46D0F8C811E030A9
:1040AC00096801F03FFC064638692246D0F8D03149
:1040BC00D0F8C81100F05EFA044638693246D0F8E0
:1040CC00D031D0F8C81100F055FA03461C4084F0EA
:1040DC0001042846E4B2640000F098F9B9E700BF87
:1040EC0008B540B1103049B1496901F0E7FD80F0E5
:1040FC000100C0B208BD10460029F5D1034B596828
:10410C0001F0DCFD80F00100C0B208BDE01400201D
:10411C00E2B12DE9F041057B0646ADB91746C8233F
:10412C0040F201120C46A846C0E90055828183601A
:10413C0021463046013506F061F9AF42A46084F89F
:10414C000C8004F1C804F3D1BDE8F081704700BFC6
:10415C00E2B12DE9F041057B0646ADB91746C823FF
:10416C0040F201120C46A846C0E9005582818360DA
:10417C0021463046013506F041F9AF42A46084F87F
:10418C000C8004F1C804F3D1BDE8F081704700BF86
:10419C00E2B12DE9F041057B0646ADB91746D823AF
:1041AC0040F201120C46A846C0E90055828183609A
:1041BC0021463046013506F021F9AF42A46084F85F
:1041CC000C8004F1D804F3D1BDE8F081704700BF36
:1041DC00E2B12DE9F041057B0646ADB91746D8236F
:1041EC0040F201120C46A846C0E90055828183605A
:1041FC0021463046013506F001F9AF42A46084F83F
:10420C000C8004F1D804F3D1BDE8F081704700BFF5
:10421C00E2B12DE9F041057B0646ADB91746A42362
:10422C0040F201120C46A846C0E900558281836019
:10423C0021463046013506F0E1F8AF42A46084F81F
:10424C000C8004F1A404F3D1BDE8F081704700BFE9
:10425C00EAB12DE9F041057B0646B5B917464FF496
:10426C002A7340F201120C46A846C0E9005582811F
:10427C00836021463046013506F0C0F8AF42A46099
:10428C0084F80C8004F52A74F3D1BDE8F0817047F2
:10429C00E2B12DE9F041057B0646ADB917461C236A
:1042AC0040F201120C46A846C0E900558281836099
:1042BC0021463046013506F0A1F8AF42A46084F8DF
:1042CC000C8004F11C04F3D1BDE8F081704700BFF1
:1042DC00E2B12DE9F041057B0646ADB917468023C6
:1042EC0040F201120C46A846C0E900558281836059
:1042FC0021463046013506F081F8AF42A46084F8BF
:10430C000C8004F18004F3D1BDE8F081704700BF4C
:10431C00E2B12DE9F041057B0646ADB917462C23D9
:10432C0040F201120C46A846C0E900558281836018
:10433C0021463046013506F061F8AF42A46084F89E
:10434C000C8004F12C04F3D1BDE8F081704700BF60
:10435C00E2B12DE9F041057B0646ADB917461C23A9
:10436C0040F201120C46A846C0E9005582818360D8
:10437C0021463046013506F041F8AF42A46084F87E
:10438C000C8004F11C04F3D1BDE8F081704700BF30
:10439C00E2B12DE9F041057B0646ADB91746202365
:1043AC0040F201120C46A846C0E900558281836098
:1043BC0021463046013506F021F8AF42A46084F85E
:1043CC000C8004F12004F3D1BDE8F081704700BFEC
:1043DC000146014806F012B8B014002038B5044666
:1043EC00006828B1074B1968FCF72EFB40B9206018
:1043FC00616829B1002504480D6105F0FFFF656077
:10440C0038BD00BFFC0D0108A014002010B50446F7
:10441C00006828B1064B1968FCF716FB38B9206008
:10442C00616821B1034805F0E9FF0023636010BD0A
:10443C00FC0D0108EC13002010B50446006828B1EF
:10444C00064B1968FCF700FB38B92060616821B194
:10445C00034805F0D3FF0023636010BDFC0D010879
:10446C00DC13002010B50446006828B1064B19680F
:10447C00FCF7EAFA38B92060616821B1034805F00D
:10448C00BDFF0023636010BDFC0D0108CC130020A0
:10449C0010B50446006828B1064B1968FCF7D4FA2D
:1044AC0038B92060616821B1034805F0A7FF0023EB
:1044BC00636010BDFC0D0108BC13002010B5044650
:1044CC000348214605F09AFF0023A36110BD00BFED
:1044DC00AC13002082B030B5254903AC84E80C0045
:1044EC000C681D460246002C3AD0204600218368F9
:1044FC0040685B6D9A4208BF01310028F7D19DF8E6
:10450C000C30022B23D006D9032B04D00020BDE89D
:10451C00304002B07047EDB18D421BD8002CF5D065
:10452C0000204FF0FF3C6FF0004502E06468002C67
:10453C00EDD0A368596D8A42F8D1D3E916136145C1
:10454C0073EB050EF2DA8C461D462046EEE70DB1F4
:10455C008D42DCD9BDE83040054802B005F03EBFC5
:10456C009DF80C30022BF5D0F4D92146CCE700BFD6
:10457C008013002010B591F802C086B0BCF1010F79
:10458C0000F1E000ADF80E200CD0012419460DF11D
:10459C000E020DF11703009402F0C2F900B10120D4
:1045AC0006B010BD01F016FE0120F9E70A7891F86B
:1045BC0008C0A2F10202B2FA82F2520982704A7A5F
:1045CC00ACF1020CA2F10202B2FA82F2BCFA8CFC3F
:1045DC00898852094FEA5C1C520080F801C0818026
:1045EC0002707047002330B50B700368144687B017
:1045FC00D3B10F4A15460095039242680D4D0846FB
:10460C000D490492059102910C4A2146019508F03E
:10461C005FFA002805DB8442D4BF0020012007B0DC
:10462C0030BD002007B030BD054B014A1D46E2E706
:10463C00C4060108DC060108D8060108C8060108F2
:10464C00D40B010810B5144682B00090084B0846F4
:10465C00084A214608F03CFA002805DB8442D4BF06
:10466C000020012002B010BD002002B010BD00BF20
:10467C00E8060108E006010810B5044640B105F053
:10468C00D3FE01462046FCF7DFF9B0FA80F0400972
:10469C0010BD00BF8368184710B504460068FCF7CE
:1046AC00D3F900280CBF2046002010BD044B1A681B
:1046BC000AB103487047034A014812681A607047F0
:1046CC00BC00002064010020024A034B12681A60EF
:1046DC00704700BF64010020BC00002006F090BBB6
:1046EC0006F092BB044B1A680AB103487047034AA0
:1046FC00014812681A607047DC0000206801002035
:10470C00042108B5002001F09FF8043008BD00BF5B
:10471C0009B100F0B3BF0846704700BF08B520B11F
:10472C000846042101F090F8043008BD034618B186
:10473C000846196800F002BF704700BF30B1042171
:10474C0008B5002001F080F8043008BD704700BFA8
:10475C00004870473001002038B50D460121044651
:10476C0001F026F848B10121A3681D70A2682369E5
:10477C000A440B44A26023616175A07D80F00100A6
:10478C0038BD00BF38B50D460121044601F010F8C4
:10479C0068B1A36801211B78003B18BF01232B7063
:1047AC00A26823690A440B44A26023616175A07D51
:1047BC0080F0010038BD00BF38B50D46012104461C
:1047CC0000F0F6FF48B10121A3681D70A2682369AF
:1047DC000A440B44A26023616175A07D80F0010046
:1047EC0038BD00BF38B50D460121044600F0E0FF8E
:1047FC0050B10121A3681B782B70A26823690A446D
:10480C000B44A26023616175A07D80F0010038BD6E
:10481C000B462DE9F041022182B00446ADF806307A
:10482C0001F01AF801462046677D01F05BF8022181
:10483C00204600F0B1FFC0B1227DA368012A4ED002
:10484C009DF807109DF806201970A3685A70022174
:10485C00A26823690A440B44A26023616175A07DA0
:10486C0080F0010002B0BDE8F081D4E90135AB4223
:10487C0023D95E1BA3602369C6F102083344414669
:10488C002046236100F094FF68B3237D012B3BD0BD
:10489C009DF807302B709DF806306B700221236950
:1048AC00A268A07D0B4442449B1B80F00100A260D7
:1048BC002361617502B0BDE8F0810221204600F051
:1048CC0077FF0028CBD0237DA268012B18D09DF850
:1048DC0007309DF806101370A3685970B7E7BDF840
:1048EC0006201A80B3E7A2682369A07D921B9B1B4C
:1048FC0080F00100A2602361677502B0BDE8F08111
:10490C00BDF806301380A2E728460DF106052946AE
:10491C0032460BF05DFA4246A068A9190BF058FA22
:10492C00BCE700BF2DE9F0430D4683B002210446DD
:10493C00ADF8062000F090FF0146204694F8158053
:10494C0000F0D0FF0221204600F026FF60BBD4E926
:10495C000167BE4223D92369A660F61B3344C6F116
:10496C00020949462046236100F022FF002837D077
:10497C00012D43D09DF807303B709DF806307B70BD
:10498C0002212369A268A07D0B444A449B1B80F042
:10499C000100A2602361617503B0BDE8F0830221C0
:1049AC00204600F005FF88B1012DA36814D09DF8B6
:1049BC0007109DF806201970A3685A700221A2688E
:1049CC0023690A440B44A26023616175A07D80F0C9
:1049DC00010003B0BDE8F083BDF806201A80EDE7B6
:1049EC00A2682369A07D921B9B1B80F00100A26032
:1049FC00236184F8158003B0BDE8F0830DF1060542
:104A0C002946324638460BF0E3F94A46A068A91904
:104A1C000BF0DEF9B4E700BF2DE9F8430D46022197
:104A2C00044600F019FF0146204694F8158000F06A
:104A3C0059FF0221204600F0AFFEA8B1227DA368E9
:104A4C00012A46D05B782B70A3681B786B7002210F
:104A5C00A26823690A440B44A26023616175A07D9E
:104A6C0080F00100BDE8F883D4E90167BE4220D98B
:104A7C002369A660F61B3344C6F102094946204659
:104A8C00236100F095FE38B3237D012B34D07B7865
:104A9C002B703B786B7002212369A2680B44A07DBC
:104AAC004A449B1BA2602361617580F00100BDE844
:104ABC00F8830221204600F07BFE0028CFD0237D16
:104ACC00A268012B15D053782B70A3681B786B70E0
:104ADC00BDE71B882B80BAE7A2682369A07D921BD7
:104AEC009B1BA260236184F8158080F00100BDE857
:104AFC00F88313882B80AAE73946324628460BF0F8
:104B0C0067F94A46A168A8190BF062F9C3E700BF20
:104B1C002DE9F0470E4602210446154600F09CFE96
:104B2C000146204694F8158000F0DCFE0221204658
:104B3C0000F032FE60BBD4E901794F4523D92369DB
:104B4C00A760A7EB09073B44C7F1020A5146204670
:104B5C00236100F02DFE002832D0012E3DD099F8B3
:104B6C0001302B7099F800306B7002212369A26818
:104B7C000B44A07D5244DB1BA2602361617580F065
:104B8C000100BDE8F0870221204600F011FE78B14B
:104B9C00012EA36811D05B782B70A3681B786B7007
:104BAC000221A26823690A440B44A2602361617547
:104BBC00A07D80F00100BDE8F0871B882B80EFE71B
:104BCC00A2682369A07DD21BDB1BA260236184F841
:104BDC00158080F00100BDE8F08749463A4628462A
:104BEC000BF0F6F85246A168E8190BF0F1F8BCE7A7
:104BFC002DE9F04182B001910421044600F02CFE15
:104C0C0001462046677D00F06DFE0421204600F031
:104C1C00C3FD00B3227DA368012A64D09DF8071060
:104C2C009DF806201970A3689DF805105A70A368AA
:104C3C009DF804209970A368DA700421A268236996
:104C4C000A440B44A26023616175A07D80F00100D1
:104C5C0002B0BDE8F081D4E90135AB422FD95E1B1F
:104C6C00A3602369C6F104083344414620462361FE
:104C7C0000F09EFD002839D0237D012B4CD09DF8EF
:104C8C000730012E2B709DF806306B703BD09DF8D1
:104C9C000530022EAB703AD003359DF804302B70E2
:104CAC0004212369A268A07D0B4442449B1B80F025
:104CBC000100A2602361617502B0BDE8F08104219E
:104CCC00204600F075FD0028BFD0237DA268012B83
:104CDC001FD09DF807309DF806001370A3689DF84F
:104CEC0005105870A3E7019A1A60A6E7A268236919
:104CFC00A07D921B9B1B80F00100A2602361677555
:104D0C0002B0BDE8F081A3689DF805201A70A56873
:104D1C00C3E7019B136090E7284601AD2946324654
:104D2C000BF056F84246A068A9190BF051F8B7E7FA
:104D3C002DE9F0430D4683B004210446019200F0A6
:104D4C008BFD0146204694F8158000F0CBFD042124
:104D5C00204600F021FD002837D1D4E90176B74276
:104D6C002ED92369A760BF1B3B44C7F104094946F0
:104D7C002046236100F01CFD002849D0012D5BD09A
:104D8C009DF80730012F33709DF8063073704DD0AD
:104D9C009DF80530022FB3704CD003369DF80430CB
:104DAC00337004212369A268A07D0B444A44DB1BA9
:104DBC0080F00100A2602361617503B0BDE8F0834F
:104DCC000421204600F0F4FCC8B1012DA3681CD0CE
:104DDC009DF807109DF806201970A3689DF8051022
:104DEC005A70A3689DF804209970A368DA700421A6
:104DFC00A26823690A440B44A26023616175A07DFB
:104E0C0080F0010003B0BDE8F083019A1A60EEE770
:104E1C00A2682369A07DD21BDB1B80F00100A2607D
:104E2C00236184F8158003B0BDE8F083A3689DF876
:104E3C0005201A70A668B1E701AD29463A463046FE
:104E4C000AF0C6FF4A46A068E9190AF0C1FFA8E7B4
:104E5C002DE9F8430D460421044600F0FDFC014603
:104E6C00204694F8158000F03DFD0421204600F00A
:104E7C0093FCD8B1227DA368012A52D0DB782B7029
:104E8C00A3689B786B70A3685B78AB70A3681B7886
:104E9C00EB700421A26823690A440B44A2602361CD
:104EAC006175A07D80F00100BDE8F883D4E901763E
:104EBC00B7422AD92369A760BF1B3B44C7F1040939
:104ECC0049462046236100F073FC68B3237D012B17
:104EDC0041D0F378012F2B70B3786B7031D073788D
:104EEC00022FAB7005F1030530D033782B70042101
:104EFC002369A2680B44A07D4A44DB1BA26023619A
:104F0C00617580F00100BDE8F8830421204600F0B3
:104F1C004FFC0028C5D0237DA268012B18D0D37874
:104F2C00ADE71B682B60B4E7A2682369A07DD21B98
:104F3C00DB1BA260236184F8158080F00100BDE8C2
:104F4C00F883A36803355B7805F8013CA668CCE7C9
:104F5C0013682B609DE731463A4628460AF038FF25
:104F6C004A46A168E8190AF033FFC0E72DE9F0477B
:104F7C000E4604210446154600F06EFC0146204600
:104F8C0094F8158000F0AEFC0421204600F004FCDF
:104F9C00002837D1D4E90137BB422ED9A3EB07093E
:104FAC00A3602369C9F1040A4B445146204623618E
:104FBC0000F0FEFB002843D0012E57D0FB78B9F14E
:104FCC00010F2B70BB786B7049D07B78B9F1020F55
:104FDC00AB7005F1030547D03B782B700421236996
:104FEC00A2680B44A07D5244A3EB0903A260236189
:104FFC00617580F00100BDE8F0870421204600F0C7
:10500C00D7FBA8B1012EA36817D0DB782B70A3684F
:10501C009B786B70A3685B78AB70A3681B78EB70A4
:10502C000421A26823690A440B44A26023616175C0
:10503C00A07D80F00100BDE8F0871B682B60EFE7D6
:10504C00A2682369A07DA2EB0902A3EB0903A2606D
:10505C00236184F8158080F00100BDE8F087A36817
:10506C0003355B7805F8013CA768B5E739464A4635
:10507C0028460AF0ADFE5246A16805EB09000AF07D
:10508C00A7FEABE72DE9F041082182B00446CDE93B
:10509C00002300F0E1FB01462046677D00F022FC76
:1050AC000821204600F078FB00284DD1D4E90135C9
:1050BC00AB4244D95E1BA3602369C6F10808334494
:1050CC0041462046236100F073FB002872D0237DFB
:1050DC00012B00F092809DF80730012E2B709DF86B
:1050EC0006306B7073D09DF80530022EAB7072D009
:1050FC009DF80430032EEB7071D09DF80330042E14
:10510C002B7170D09DF80230052E6B716FD09DF80D
:10511C000130062EAB716ED007359DF800302B7028
:10512C0008212369A268A07D0B4442449B1B80F09C
:10513C000100A2602361617502B0BDE8F081082115
:10514C00204600F035FB50B3227DA368012A2CD0F9
:10515C009DF807109DF806201970A3689DF805109E
:10516C005A70A3689DF804209970A3689DF80310E9
:10517C00DA70A3689DF802201971A3689DF80110DC
:10518C005A71A3689DF800209971A368DA710821FF
:10519C00A26823690A440B44A26023616175A07D57
:1051AC0080F0010002B0BDE8F081DDE90012196069
:1051BC005A60ECE7A2682369A07D921B9B1B80F0D0
:1051CC000100A2602361677502B0BDE8F081A3689D
:1051DC009DF805201A70A3689DF804201A70A36826
:1051EC009DF803201A70A3689DF802201A70A3681A
:1051FC009DF801201A70A5688FE728466D46324647
:10520C0029460AF0E5FD4246A068A9190AF0E0FD1E
:10521C0086E700BF0B462DE9F041022182B004461F
:10522C00ADF8063000F018FB01462046677D00F013
:10523C0059FB0221204600F0AFFAC0B1227DA368D1
:10524C00012A4ED09DF807109DF806201970A3680E
:10525C005A700221A26823690A440B44A26023619C
:10526C006175A07D80F0010002B0BDE8F081D4E949
:10527C000135AB4223D95E1BA3602369C6F102083A
:10528C00334441462046236100F092FA68B3237DF3
:10529C00012B3BD09DF807302B709DF806306B70BE
:1052AC0002212369A268A07D0B4442449B1B80F021
:1052BC000100A2602361617502B0BDE8F08102219A
:1052CC00204600F075FA0028CBD0237DA268012B74
:1052DC0018D09DF807309DF806101370A36859700C
:1052EC00B7E7BDF806201A80B3E7A2682369A07D52
:1052FC00921B9B1B80F00100A2602361677502B0BA
:10530C00BDE8F081BDF806301380A2E728460DF108
:10531C000605294632460AF05BFD4246A068A919EB
:10532C000AF056FDBCE700BF2DE9F8430D460221FB
:10533C00044600F091FA0146204694F8158000F0DE
:10534C00D1FA0221204600F027FAA8B1227DA368E9
:10535C00012A46D05B782B70A3681B786B700221F6
:10536C00A26823690A440B44A26023616175A07D85
:10537C0080F00100BDE8F883D4E90167BE4220D972
:10538C002369A660F61B3344C6F102094946204640
:10539C00236100F00DFA38B3237D012B34D07B78D8
:1053AC002B703B786B7002212369A2680B44A07DA3
:1053BC004A449B1BA2602361617580F00100BDE82B
:1053CC00F8830221204600F0F3F90028CFD0237D8A
:1053DC00A268012B15D053782B70A3681B786B70C7
:1053EC00BDE71B882B80BAE7A2682369A07D921BBE
:1053FC009B1BA260236184F8158080F00100BDE83E
:10540C00F88313882B80AAE73946324628460AF0DF
:10541C00DFFC4A46A168A8190AF0DAFCC3E700BF12
:10542C002DE9F8430D460421044600F015FA014617
:10543C00204694F8158000F055FA0421204600F01F
:10544C00ABF9D8B1227DA368012A52D0DB782B703E
:10545C00A3689B786B70A3685B78AB70A3681B78B0
:10546C00EB700421A26823690A440B44A2602361F7
:10547C006175A07D80F00100BDE8F883D4E9017668
:10548C00B7422AD92369A760BF1B3B44C7F1040963
:10549C0049462046236100F08BF968B3237D012B2C
:1054AC0041D0F378012F2B70B3786B7031D07378B7
:1054BC00022FAB7005F1030530D033782B7004212B
:1054CC002369A2680B44A07D4A44DB1BA2602361C4
:1054DC00617580F00100BDE8F8830421204600F0DE
:1054EC0067F90028C5D0237DA268012B18D0D3788A
:1054FC00ADE71B682B60B4E7A2682369A07DD21BC3
:10550C00DB1BA260236184F8158080F00100BDE8EC
:10551C00F883A36803355B7805F8013CA668CCE7F3
:10552C0013682B609DE731463A4628460AF050FC3A
:10553C004A46A168E8190AF04BFCC0E72DE9F04196
:10554C0082B001910421044600F086F90146204600
:10555C00677D00F0C7F90421204600F01DF900B367
:10556C00227DA368012A64D09DF807109DF80620BF
:10557C001970A3689DF805105A70A3689DF8042053
:10558C009970A368DA700421A26823690A440B4459
:10559C00A26023616175A07D80F0010002B0BDE8BE
:1055AC00F081D4E90135AB422FD95E1BA36023698E
:1055BC00C6F10408334441462046236100F0F8F854
:1055CC00002839D0237D012B4CD09DF80730012EBB
:1055DC002B709DF806306B703BD09DF80530022E79
:1055EC00AB703AD003359DF804302B70042123693D
:1055FC00A268A07D0B4442449B1B80F00100A2607A
:10560C002361617502B0BDE8F0810421204600F0F1
:10561C00CFF80028BFD0237DA268012B1FD09DF8A6
:10562C0007309DF806001370A3689DF8051058709C
:10563C00A3E7019A1A60A6E7A2682369A07D921BD2
:10564C009B1B80F00100A2602361677502B0BDE86E
:10565C00F081A3689DF805201A70A568C3E7019B2B
:10566C00136090E7284601AD294632460AF0B0FB9C
:10567C004246A068A9190AF0ABFBB7E72DE9F8433D
:10568C000D460421044600F0E7F80146204694F844
:10569C00158000F027F90421204600F07DF8D8B1E0
:1056AC00227DA368012A52D0DB782B70A3689B78EB
:1056BC006B70A3685B78AB70A3681B78EB700421EC
:1056CC00A26823690A440B44A26023616175A07D22
:1056DC0080F00100BDE8F883D4E90176B7422AD9FD
:1056EC002369A760BF1B3B44C7F104094946204608
:1056FC00236100F05DF868B3237D012B41D0F37872
:10570C00012F2B70B3786B7031D07378022FAB7084
:10571C0005F1030530D033782B7004212369A2687E
:10572C000B44A07D4A44DB1BA2602361617580F0B1
:10573C000100BDE8F8830421204600F039F8002868
:10574C00C5D0237DA268012B18D0D378ADE71B6898
:10575C002B60B4E7A2682369A07DD21BDB1BA2607F
:10576C00236184F8158080F00100BDE8F883A368FC
:10577C0003355B7805F8013CA668CCE713682B6011
:10578C009DE731463A4628460AF022FB4A46A16874
:10579C00E8190AF01DFBC0E7837D3BB983684068BC
:1057AC000B44984234BF0020012070470020704702
:1057BC00837D43B910B5D0E901219142044605D24D
:1057CC000123184610BD00231846704782693AB170
:1057DC00C169904780F00103DBB2A075184610BD7B
:1057EC000120A075FAE700BFC0E90612704700BFA0
:1057FC0030B40024029D9DF80CC00A44C0E900128C
:10580C0029441D44C0E90335C0E906444475847538
:10581C0080F814C0816030BC704700BF10B582B0F6
:10582C00049C009401240194FFF7E2FF02B010BD28
:10583C0010B5002482B00094FFF7F0FF02B010BD49
:10584C000023FFF7F5BF00BFB0FBF1F202FB110024
:10585C004B1E081A18407047437D8B4209D20369CE
:10586C004A1EB3FBF1F001FB1033C91A01EA020026
:10587C0070470020704700BF38B504460D46FFF74F
:10588C00EBFFD4E9011303448B4228BF0B4622697A
:10589C00657502442261A36038BD00BF8268006850
:1058AC00101A7047D0E90120101A704738B5837D63
:1058BC0063B9D0E901329A4204460D4608D339B196
:1058CC00836963B1C1699847A07508B1002038BDE0
:1058DC002046FFF7E7FFA84228BF284638BD012322
:1058EC008375F3E738B504460D46FFF755FF78B1DD
:1058FC002369A2682B44236101232A44A2606375A7
:10590C0038BDA2682369024403442D1AA2602361A6
:10591C00294601222046FFF7C9FF0028F1D10123B7
:10592C00637538BD10B5032300248EB0CDE9014258
:10593C000093042206AB044601F056FA18B904464B
:10594C0020460EB010BD029905AA204601F088FB36
:10595C00044605A906A803F037F920460EB010BD81
:10596C0030B58DB0CDE90221C2F30742012A18BF30
:10597C0000224FF0010508BF03F001029DF8401012
:10598C000E331A44019104AB039992B2009504466C
:10599C0001F02AFA18B9044620460DB030BD029920
:1059AC00119A204601F05CFB0446119904A803F0FF
:1059BC004FF820460DB030BD70B5ADF5167D032601
:1059CC00CDE90221ADF85432002101239A9A11AC91
:1059DC00267205469DF86C628DF814102371CAB1BD
:1059EC008DF81C3008924FF4007209A815A9FFF726
:1059FC0027FF05A909A802F021FDDDE902210D9B75
:105A0C00009601942846E3609BB2FFF7A9FF0DF5C1
:105A1C00167D70BD8DF81C20E5E700BF70B50546FE
:105A2C0018460223ADF5187DCDE9042197A99DF800
:105A3C0078628DF8503000F09DF9032301228DF827
:105A4C00543000239C998DF8242006919D994FF495
:105A5C0000720A910BA817A98DF81C30FFF7F0FE05
:105A6C0006A90BA802F00CFDDDE904210F9B13AC79
:105A7C0016932846009601949BB2FFF771FF0DF523
:105A8C00187D70BDF0B50326ADF28C4DCDE9042127
:105A9C00054692A918469DF8A0748DF83C6000F05C
:105AAC0069F900234FF4007206A812A98DF84C3244
:105ABC008DF854328DF84060FFF7C2FE93A906A80A
:105ACC0002F094FDDDE904210A9B0EAC11932846EB
